{
  "contractName": "FlightSuretyData",
  "abi": [
    {
      "inputs": [],
      "payable": false,
      "stateMutability": "nonpayable",
      "type": "constructor"
    },
    {
      "constant": false,
      "inputs": [
        {
          "name": "flightNum",
          "type": "uint256"
        },
        {
          "name": "sender",
          "type": "address"
        },
        {
          "name": "amount",
          "type": "uint256"
        }
      ],
      "name": "buyInsurance",
      "outputs": [],
      "payable": true,
      "stateMutability": "payable",
      "type": "function"
    },
    {
      "constant": false,
      "inputs": [
        {
          "name": "flightNum",
          "type": "uint256"
        },
        {
          "name": "passenger",
          "type": "address"
        }
      ],
      "name": "creditInsuree",
      "outputs": [],
      "payable": false,
      "stateMutability": "nonpayable",
      "type": "function"
    },
    {
      "constant": true,
      "inputs": [
        {
          "name": "flightNum",
          "type": "uint256"
        }
      ],
      "name": "getFlightInfo",
      "outputs": [
        {
          "name": "",
          "type": "bool"
        },
        {
          "name": "",
          "type": "uint8"
        },
        {
          "name": "",
          "type": "uint256"
        },
        {
          "name": "",
          "type": "address"
        },
        {
          "name": "",
          "type": "address[]"
        }
      ],
      "payable": false,
      "stateMutability": "view",
      "type": "function"
    },
    {
      "constant": true,
      "inputs": [
        {
          "name": "flightNum",
          "type": "uint256"
        }
      ],
      "name": "getFlightPassengers",
      "outputs": [
        {
          "name": "",
          "type": "address[]"
        }
      ],
      "payable": false,
      "stateMutability": "view",
      "type": "function"
    },
    {
      "constant": true,
      "inputs": [
        {
          "name": "flightNum",
          "type": "uint256"
        },
        {
          "name": "passenger",
          "type": "address"
        }
      ],
      "name": "getAmountInfo",
      "outputs": [
        {
          "name": "",
          "type": "uint256"
        }
      ],
      "payable": false,
      "stateMutability": "view",
      "type": "function"
    },
    {
      "constant": true,
      "inputs": [
        {
          "name": "passenger",
          "type": "address"
        }
      ],
      "name": "getPendingWithdrawal",
      "outputs": [
        {
          "name": "",
          "type": "uint256"
        }
      ],
      "payable": false,
      "stateMutability": "view",
      "type": "function"
    },
    {
      "constant": false,
      "inputs": [
        {
          "name": "sender",
          "type": "address"
        }
      ],
      "name": "withdrawCredit",
      "outputs": [
        {
          "name": "",
          "type": "uint256"
        }
      ],
      "payable": false,
      "stateMutability": "nonpayable",
      "type": "function"
    }
  ],
  "bytecode": "0x608060405234801561001057600080fd5b50336000806101000a81548173ffffffffffffffffffffffffffffffffffffffff021916908373ffffffffffffffffffffffffffffffffffffffff1602179055506040518060a00160405280600115158152602001600a60ff1681526020014281526020016000809054906101000a900473ffffffffffffffffffffffffffffffffffffffff1673ffffffffffffffffffffffffffffffffffffffff16815260200160006040519080825280602002602001820160405280156100e25781602001602082028038833980820191505090505b50815250600160006103e9815260200190815260200160002060008201518160000160006101000a81548160ff02191690831515021790555060208201518160000160016101000a81548160ff021916908360ff1602179055506040820151816001015560608201518160020160006101000a81548173ffffffffffffffffffffffffffffffffffffffff021916908373ffffffffffffffffffffffffffffffffffffffff16021790555060808201518160030190805190602001906101a99291906101b2565b5090505061027f565b82805482825590600052602060002090810192821561022b579160200282015b8281111561022a5782518260006101000a81548173ffffffffffffffffffffffffffffffffffffffff021916908373ffffffffffffffffffffffffffffffffffffffff160217905550916020019190600101906101d2565b5b509050610238919061023c565b5090565b61027c91905b8082111561027857600081816101000a81549073ffffffffffffffffffffffffffffffffffffffff021916905550600101610242565b5090565b90565b6109098061028e6000396000f3fe6080604052600436106100705760003560e01c8063b632702a1161004e578063b632702a146101ae578063ccd384ce14610209578063df30b022146102eb578063e95e70b41461034357610070565b80636c8cc9d9146100755780637ee8b2f8146100da5780637f6004dd1461013f575b600080fd5b34801561008157600080fd5b506100c46004803603602081101561009857600080fd5b81019080803573ffffffffffffffffffffffffffffffffffffffff1690602001909291905050506103d3565b6040518082815260200191505060405180910390f35b3480156100e657600080fd5b50610129600480360360208110156100fd57600080fd5b81019080803573ffffffffffffffffffffffffffffffffffffffff169060200190929190505050610466565b6040518082815260200191505060405180910390f35b34801561014b57600080fd5b506101986004803603604081101561016257600080fd5b8101908080359060200190929190803573ffffffffffffffffffffffffffffffffffffffff1690602001909291905050506104af565b6040518082815260200191505060405180910390f35b3480156101ba57600080fd5b50610207600480360360408110156101d157600080fd5b8101908080359060200190929190803573ffffffffffffffffffffffffffffffffffffffff16906020019092919050505061050d565b005b34801561021557600080fd5b506102426004803603602081101561022c57600080fd5b8101908080359060200190929190505050610613565b60405180861515151581526020018560ff1660ff1681526020018481526020018373ffffffffffffffffffffffffffffffffffffffff1673ffffffffffffffffffffffffffffffffffffffff16815260200180602001828103825283818151815260200191508051906020019060200280838360005b838110156102d35780820151818401526020810190506102b8565b50505050905001965050505050505060405180910390f35b6103416004803603606081101561030157600080fd5b8101908080359060200190929190803573ffffffffffffffffffffffffffffffffffffffff16906020019092919080359060200190929190505050610762565b005b34801561034f57600080fd5b5061037c6004803603602081101561036657600080fd5b8101908080359060200190929190505050610839565b6040518080602001828103825283818151815260200191508051906020019060200280838360005b838110156103bf5780820151818401526020810190506103a4565b505050509050019250505060405180910390f35b600080600260008473ffffffffffffffffffffffffffffffffffffffff1673ffffffffffffffffffffffffffffffffffffffff1681526020019081526020016000205490506000600260008573ffffffffffffffffffffffffffffffffffffffff1673ffffffffffffffffffffffffffffffffffffffff1681526020019081526020016000208190555080915050919050565b6000600260008373ffffffffffffffffffffffffffffffffffffffff1673ffffffffffffffffffffffffffffffffffffffff168152602001908152602001600020549050919050565b60006001600084815260200190815260200160002060040160008373ffffffffffffffffffffffffffffffffffffffff1673ffffffffffffffffffffffffffffffffffffffff16815260200190815260200160002054905092915050565b60006001600084815260200190815260200160002060040160008373ffffffffffffffffffffffffffffffffffffffff1673ffffffffffffffffffffffffffffffffffffffff16815260200190815260200160002054905060006001600085815260200190815260200160002060040160008473ffffffffffffffffffffffffffffffffffffffff1673ffffffffffffffffffffffffffffffffffffffff16815260200190815260200160002081905550600281816105c857fe5b048101600260008473ffffffffffffffffffffffffffffffffffffffff1673ffffffffffffffffffffffffffffffffffffffff16815260200190815260200160002081905550505050565b60008060008060606001600087815260200190815260200160002060000160009054906101000a900460ff166001600088815260200190815260200160002060000160019054906101000a900460ff166001600089815260200190815260200160002060010154600160008a815260200190815260200160002060020160009054906101000a900473ffffffffffffffffffffffffffffffffffffffff16600160008b81526020019081526020016000206003018080548060200260200160405190810160405280929190818152602001828054801561074857602002820191906000526020600020905b8160009054906101000a900473ffffffffffffffffffffffffffffffffffffffff1673ffffffffffffffffffffffffffffffffffffffff16815260200190600101908083116106fe575b505050505090509450945094509450945091939590929450565b600160008481526020019081526020016000206003018290806001815401808255809150509060018203906000526020600020016000909192909190916101000a81548173ffffffffffffffffffffffffffffffffffffffff021916908373ffffffffffffffffffffffffffffffffffffffff16021790555050806001600085815260200190815260200160002060040160008473ffffffffffffffffffffffffffffffffffffffff1673ffffffffffffffffffffffffffffffffffffffff16815260200190815260200160002081905550505050565b6060600160008381526020019081526020016000206003018054806020026020016040519081016040528092919081815260200182805480156108d157602002820191906000526020600020905b8160009054906101000a900473ffffffffffffffffffffffffffffffffffffffff1673ffffffffffffffffffffffffffffffffffffffff1681526020019060010190808311610887575b5050505050905091905056fea165627a7a7230582023c36c5170df895be7708c204656d10218877089e931c1658103919167dadd1c0029",
  "source": "pragma solidity ^0.5.0;\n\nimport \"../node_modules/openzeppelin-solidity/contracts/math/SafeMath.sol\";\n\ncontract FlightSuretyData {\n    using SafeMath for uint256;\n\n    //DATA VARIABLES\n    address private contractOwner;\n\n    struct Flight {\n        bool isRegistered;\n        uint8 statusCode;\n        uint256 updatedTimestamp;\n        address airline;\n        address[] insuredPassengers;\n        mapping(address => uint) amountsInsured;\n    }\n    mapping(uint => Flight) private flights;\n    mapping(address => uint) pendingWithdrawals;\n\n    /**\n    * @dev Constructor\n    *      The deploying account becomes contractOwner\n    */\n    constructor() public\n    {\n        contractOwner = msg.sender;\n        //operational = true;\n        flights[1001] = Flight(true, 10, now, contractOwner, new address[](0));\n    }\n\n\n   /**\n    * @dev Buy insurance for a flight\n    *\n    */\n    function buyInsurance(uint flightNum, address sender, uint amount) external payable\n    {\n        flights[flightNum].insuredPassengers.push(sender);\n        flights[flightNum].amountsInsured[sender] = amount;\n    }\n\n    /**\n     *  @dev Credits payouts to insurees\n    */\n    function creditInsuree(uint flightNum, address passenger) external\n    {\n        uint amount = flights[flightNum].amountsInsured[passenger];\n        flights[flightNum].amountsInsured[passenger] = 0;\n        pendingWithdrawals[passenger] = (amount + amount/2);\n    }\n\n    function getFlightInfo(uint flightNum) public view returns(bool, uint8, uint256, address, address[] memory){\n        return (\n            flights[flightNum].isRegistered,\n            flights[flightNum].statusCode,\n            flights[flightNum].updatedTimestamp,\n            flights[flightNum].airline,\n            flights[flightNum].insuredPassengers\n        );\n    }\n\n    function getFlightPassengers(uint flightNum) public view returns(address[] memory)\n    {\n        return flights[flightNum].insuredPassengers;\n    }\n\n    function getAmountInfo(uint flightNum, address passenger) public view returns(uint)\n    {\n        return flights[flightNum].amountsInsured[passenger];\n    }\n\n    function getPendingWithdrawal(address passenger) public view returns(uint)\n    {\n        return pendingWithdrawals[passenger];\n    }\n\n    function withdrawCredit(address sender) external returns(uint)\n    {\n        uint amount = pendingWithdrawals[sender];\n        pendingWithdrawals[sender] = 0;\n        return amount;\n    }\n}\n\n",
  "sourcePath": "/Users/cappwiedenhoefer/udacity_course/FlightSurety-passengers/contracts/FlightSuretyData.sol",
  "compiler": {
    "name": "solc",
    "version": "0.5.8+commit.23d335f2.Emscripten.clang"
  },
  "schemaVersion": "3.0.10",
  "updatedAt": "2019-06-25T16:56:08.182Z",
  "devdoc": {
    "methods": {
      "buyInsurance(uint256,address,uint256)": {
        "details": "Buy insurance for a flight    "
      },
      "constructor": {
        "details": "Constructor     The deploying account becomes contractOwner"
      },
      "creditInsuree(uint256,address)": {
        "details": "Credits payouts to insurees"
      }
    }
  },
  "userdoc": {
    "methods": {}
  }
}