{
  "contractName": "FlightSuretyApp",
  "abi": [
    {
      "inputs": [
        {
          "name": "dataContract",
          "type": "address"
        }
      ],
      "payable": false,
      "stateMutability": "nonpayable",
      "type": "constructor"
    },
    {
      "payable": true,
      "stateMutability": "payable",
      "type": "fallback"
    },
    {
      "constant": false,
      "inputs": [
        {
          "name": "flightNum",
          "type": "uint256"
        }
      ],
      "name": "buyInsurance",
      "outputs": [],
      "payable": true,
      "stateMutability": "payable",
      "type": "function"
    },
    {
      "constant": false,
      "inputs": [
        {
          "name": "flightNum",
          "type": "uint256"
        }
      ],
      "name": "creditInsurees",
      "outputs": [],
      "payable": false,
      "stateMutability": "nonpayable",
      "type": "function"
    },
    {
      "constant": false,
      "inputs": [],
      "name": "withdrawCredit",
      "outputs": [],
      "payable": false,
      "stateMutability": "nonpayable",
      "type": "function"
    }
  ],
  "bytecode": "0x608060405234801561001057600080fd5b506040516020806106938339810180604052602081101561003057600080fd5b8101908080519060200190929190505050336000806101000a81548173ffffffffffffffffffffffffffffffffffffffff021916908373ffffffffffffffffffffffffffffffffffffffff16021790555080600160006101000a81548173ffffffffffffffffffffffffffffffffffffffff021916908373ffffffffffffffffffffffffffffffffffffffff160217905550506105c1806100d26000396000f3fe6080604052600436106100345760003560e01c8063a86a658c14610036578063c36f387414610064578063c82b1abf1461007b575b005b6100626004803603602081101561004c57600080fd5b81019080803590602001909291905050506100b6565b005b34801561007057600080fd5b5061007961024b565b005b34801561008757600080fd5b506100b46004803603602081101561009e57600080fd5b8101908080359060200190929190505050610375565b005b670de0b6b3a7640000341115610117576040517f08c379a00000000000000000000000000000000000000000000000000000000081526004018080602001828103825260238152602001806105736023913960400191505060405180910390fd5b6000809054906101000a900473ffffffffffffffffffffffffffffffffffffffff1673ffffffffffffffffffffffffffffffffffffffff166108fc349081150290604051600060405180830381858888f1935050505015801561017e573d6000803e3d6000fd5b50600160009054906101000a900473ffffffffffffffffffffffffffffffffffffffff1673ffffffffffffffffffffffffffffffffffffffff1663df30b0228233346040518463ffffffff1660e01b8152600401808481526020018373ffffffffffffffffffffffffffffffffffffffff1673ffffffffffffffffffffffffffffffffffffffff1681526020018281526020019350505050600060405180830381600087803b15801561023057600080fd5b505af1158015610244573d6000803e3d6000fd5b5050505050565b6000600160009054906101000a900473ffffffffffffffffffffffffffffffffffffffff1673ffffffffffffffffffffffffffffffffffffffff16636c8cc9d9336040518263ffffffff1660e01b8152600401808273ffffffffffffffffffffffffffffffffffffffff1673ffffffffffffffffffffffffffffffffffffffff168152602001915050602060405180830381600087803b1580156102ee57600080fd5b505af1158015610302573d6000803e3d6000fd5b505050506040513d602081101561031857600080fd5b810190808051906020019092919050505090503373ffffffffffffffffffffffffffffffffffffffff166108fc829081150290604051600060405180830381858888f19350505050158015610371573d6000803e3d6000fd5b5050565b6060600160009054906101000a900473ffffffffffffffffffffffffffffffffffffffff1673ffffffffffffffffffffffffffffffffffffffff1663e95e70b4836040518263ffffffff1660e01b81526004018082815260200191505060006040518083038186803b1580156103ea57600080fd5b505afa1580156103fe573d6000803e3d6000fd5b505050506040513d6000823e3d601f19601f82011682018060405250602081101561042857600080fd5b81019080805164010000000081111561044057600080fd5b8281019050602081018481111561045657600080fd5b815185602082028301116401000000008211171561047357600080fd5b5050929190505050905060008090505b815181101561056d57600160009054906101000a900473ffffffffffffffffffffffffffffffffffffffff1673ffffffffffffffffffffffffffffffffffffffff1663b632702a848484815181106104d757fe5b60200260200101516040518363ffffffff1660e01b8152600401808381526020018273ffffffffffffffffffffffffffffffffffffffff1673ffffffffffffffffffffffffffffffffffffffff16815260200192505050600060405180830381600087803b15801561054857600080fd5b505af115801561055c573d6000803e3d6000fd5b505050508080600101915050610483565b50505056fe596f752063616e6e6f7420696e73757265206d6f7265207468616e2031206574686572a165627a7a72305820e1c6132561e0c1229bfc3a234df96307ccabce9d8aa9952f36f36ce0f67b72120029",
  "source": "pragma solidity ^0.5.0;\n\nimport \"../node_modules/openzeppelin-solidity/contracts/math/SafeMath.sol\";\n\n//FlightSurety Smart Contract\n\ncontract FlightSuretyApp {\n    using SafeMath for uint256;\n\n    address payable private contractOwner;          // Account used to deploy contract\n    FlightSuretyData flightSuretyData;      // Instance of the data contract\n\n    //MODIFIERS\n\n    //CONSTRUCTOR\n\n    /**\n    * @dev Contract constructor\n    *\n    */\n    constructor(address dataContract) public\n    {\n        contractOwner = msg.sender;\n        flightSuretyData = FlightSuretyData(dataContract);\n    }\n\n    function buyInsurance(uint flightNum) external payable\n    {\n        require(msg.value <= 1 ether, \"You cannot insure more than 1 ether\");\n        contractOwner.transfer(msg.value);\n        flightSuretyData.buyInsurance(flightNum, msg.sender, msg.value);\n    }\n\n    function creditInsurees(uint flightNum) external\n    {\n        address[] memory passengers = flightSuretyData.getFlightPassengers(flightNum);\n        for (uint i = 0; i < passengers.length; i++) {\n            flightSuretyData.creditInsuree(flightNum, passengers[i]);\n        }\n    }\n\n    function withdrawCredit() public\n    {\n        uint amount = flightSuretyData.withdrawCredit(msg.sender);\n        msg.sender.transfer(amount);\n    }\n\n    function() external payable {}\n\n}\n\n//Contract Data Interface\ncontract FlightSuretyData {\n    function buyInsurance(uint, address, uint) external;\n    function getFlightInfo(uint) public view returns(bool, uint8, uint256, address, address[] memory);\n    function getFlightPassengers(uint) public view returns(address[] memory);\n    function creditInsuree(uint, address) external;\n    function withdrawCredit(address sender) external returns(uint);\n}",
  "sourcePath": "/Users/cappwiedenhoefer/udacity_course/FlightSurety-passengers/contracts/FlightSuretyApp.sol",
  "compiler": {
    "name": "solc",
    "version": "0.5.8+commit.23d335f2.Emscripten.clang"
  },
  "schemaVersion": "3.0.10",
  "updatedAt": "2019-06-25T16:56:08.176Z",
  "devdoc": {
    "methods": {
      "constructor": {
        "details": "Contract constructor    "
      }
    }
  },
  "userdoc": {
    "methods": {}
  }
}