{
  "contractName": "FlightSuretyData",
  "abi": [
    {
      "inputs": [],
      "payable": false,
      "stateMutability": "nonpayable",
      "type": "constructor"
    },
    {
      "payable": true,
      "stateMutability": "payable",
      "type": "fallback"
    },
    {
      "anonymous": false,
      "inputs": [
        {
          "indexed": false,
          "name": "airline",
          "type": "address"
        }
      ],
      "name": "AirlineAdded",
      "type": "event"
    },
    {
      "constant": true,
      "inputs": [],
      "name": "isOperational",
      "outputs": [
        {
          "name": "",
          "type": "bool"
        }
      ],
      "payable": false,
      "stateMutability": "view",
      "type": "function"
    },
    {
      "constant": true,
      "inputs": [
        {
          "name": "airline",
          "type": "address"
        }
      ],
      "name": "isAirlineRegistered",
      "outputs": [
        {
          "name": "",
          "type": "bool"
        }
      ],
      "payable": false,
      "stateMutability": "view",
      "type": "function"
    },
    {
      "constant": true,
      "inputs": [
        {
          "name": "airline",
          "type": "address"
        }
      ],
      "name": "isAntePaid",
      "outputs": [
        {
          "name": "",
          "type": "bool"
        }
      ],
      "payable": false,
      "stateMutability": "view",
      "type": "function"
    },
    {
      "constant": true,
      "inputs": [],
      "name": "getAirlineCount",
      "outputs": [
        {
          "name": "",
          "type": "uint256"
        }
      ],
      "payable": false,
      "stateMutability": "view",
      "type": "function"
    },
    {
      "constant": false,
      "inputs": [
        {
          "name": "mode",
          "type": "bool"
        }
      ],
      "name": "setOperatingStatus",
      "outputs": [],
      "payable": false,
      "stateMutability": "nonpayable",
      "type": "function"
    },
    {
      "constant": false,
      "inputs": [
        {
          "name": "newAirline",
          "type": "address"
        }
      ],
      "name": "registerAirline",
      "outputs": [],
      "payable": false,
      "stateMutability": "nonpayable",
      "type": "function"
    },
    {
      "constant": false,
      "inputs": [
        {
          "name": "newAirline",
          "type": "address"
        }
      ],
      "name": "payAnte",
      "outputs": [],
      "payable": false,
      "stateMutability": "nonpayable",
      "type": "function"
    },
    {
      "constant": false,
      "inputs": [
        {
          "name": "flight",
          "type": "string"
        },
        {
          "name": "sender",
          "type": "address"
        }
      ],
      "name": "buy",
      "outputs": [],
      "payable": true,
      "stateMutability": "payable",
      "type": "function"
    },
    {
      "constant": true,
      "inputs": [
        {
          "name": "flight",
          "type": "string"
        }
      ],
      "name": "creditInsurees",
      "outputs": [
        {
          "name": "",
          "type": "address[]"
        }
      ],
      "payable": false,
      "stateMutability": "view",
      "type": "function"
    },
    {
      "constant": true,
      "inputs": [],
      "name": "pay",
      "outputs": [],
      "payable": false,
      "stateMutability": "view",
      "type": "function"
    },
    {
      "constant": false,
      "inputs": [],
      "name": "fund",
      "outputs": [],
      "payable": true,
      "stateMutability": "payable",
      "type": "function"
    }
  ],
  "bytecode": "0x608060405234801561001057600080fd5b50336000806101000a81548173ffffffffffffffffffffffffffffffffffffffff021916908373ffffffffffffffffffffffffffffffffffffffff1602179055506001600060146101000a81548160ff021916908315150217905550610ab18061007b6000396000f3fe60806040526004361061009c5760003560e01c80633fcf1cf4116100645780633fcf1cf41461021d5780637f9e1808146102f8578063b60d428814610323578063bdfd98771461032d578063cd905dff1461037e578063e1a3e55c146103ad5761009c565b8063010c5c97146100a6578063110466ed1461010f5780631b6277ec1461014c5780631b9265b81461019d57806335dd4dd3146101b4575b6100a4610446565b005b3480156100b257600080fd5b506100f5600480360360208110156100c957600080fd5b81019080803573ffffffffffffffffffffffffffffffffffffffff1690602001909291905050506104ad565b604051808215151515815260200191505060405180910390f35b34801561011b57600080fd5b5061014a6004803603602081101561013257600080fd5b81019080803515159060200190929190505050610503565b005b34801561015857600080fd5b5061019b6004803603602081101561016f57600080fd5b81019080803573ffffffffffffffffffffffffffffffffffffffff1690602001909291905050506105e2565b005b3480156101a957600080fd5b506101b261063d565b005b3480156101c057600080fd5b50610203600480360360208110156101d757600080fd5b81019080803573ffffffffffffffffffffffffffffffffffffffff1690602001909291905050506106a4565b604051808215151515815260200191505060405180910390f35b34801561022957600080fd5b506102a16004803603602081101561024057600080fd5b810190808035906020019064010000000081111561025d57600080fd5b82018360208201111561026f57600080fd5b8035906020019184600183028401116401000000008311171561029157600080fd5b909192939192939050505061079c565b6040518080602001828103825283818151815260200191508051906020019060200280838360005b838110156102e45780820151818401526020810190506102c9565b505050509050019250505060405180910390f35b34801561030457600080fd5b5061030d6108b7565b6040518082815260200191505060405180910390f35b61032b610446565b005b34801561033957600080fd5b5061037c6004803603602081101561035057600080fd5b81019080803573ffffffffffffffffffffffffffffffffffffffff1690602001909291905050506108c1565b005b34801561038a57600080fd5b5061039361092d565b604051808215151515815260200191505060405180910390f35b610444600480360360408110156103c357600080fd5b81019080803590602001906401000000008111156103e057600080fd5b8201836020820111156103f257600080fd5b8035906020019184600183028401116401000000008311171561041457600080fd5b9091929391929390803573ffffffffffffffffffffffffffffffffffffffff169060200190929190505050610943565b005b600060149054906101000a900460ff166104ab576040517f08c379a0000000000000000000000000000000000000000000000000000000008152600401808060200182810382526025815260200180610a396025913960400191505060405180910390fd5b565b6000600160008373ffffffffffffffffffffffffffffffffffffffff1673ffffffffffffffffffffffffffffffffffffffff16815260200190815260200160002060009054906101000a900460ff169050919050565b6000809054906101000a900473ffffffffffffffffffffffffffffffffffffffff1673ffffffffffffffffffffffffffffffffffffffff163373ffffffffffffffffffffffffffffffffffffffff16146105c5576040517f08c379a000000000000000000000000000000000000000000000000000000000815260040180806020018281038252601c8152602001807f43616c6c6572206973206e6f7420636f6e7472616374206f776e65720000000081525060200191505060405180910390fd5b80600060146101000a81548160ff02191690831515021790555050565b6001600260008373ffffffffffffffffffffffffffffffffffffffff1673ffffffffffffffffffffffffffffffffffffffff16815260200190815260200160002060006101000a81548160ff02191690831515021790555050565b600060149054906101000a900460ff166106a2576040517f08c379a0000000000000000000000000000000000000000000000000000000008152600401808060200182810382526025815260200180610a396025913960400191505060405180910390fd5b565b6000600160008373ffffffffffffffffffffffffffffffffffffffff1673ffffffffffffffffffffffffffffffffffffffff16815260200190815260200160002060009054906101000a900460ff16610748576040517f08c379a0000000000000000000000000000000000000000000000000000000008152600401808060200182810382526028815260200180610a5e6028913960400191505060405180910390fd5b600260008373ffffffffffffffffffffffffffffffffffffffff1673ffffffffffffffffffffffffffffffffffffffff16815260200190815260200160002060009054906101000a900460ff169050919050565b6060600060149054906101000a900460ff16610803576040517f08c379a0000000000000000000000000000000000000000000000000000000008152600401808060200182810382526025815260200180610a396025913960400191505060405180910390fd5b6004838360405180838380828437808301925050509250505090815260200160405180910390208054806020026020016040519081016040528092919081815260200182805480156108aa57602002820191906000526020600020905b8160009054906101000a900473ffffffffffffffffffffffffffffffffffffffff1673ffffffffffffffffffffffffffffffffffffffff1681526020019060010190808311610860575b5050505050905092915050565b6000600354905090565b60018060008373ffffffffffffffffffffffffffffffffffffffff1673ffffffffffffffffffffffffffffffffffffffff16815260200190815260200160002060006101000a81548160ff02191690831515021790555060036000815480929190600101919050555050565b60008060149054906101000a900460ff16905090565b600060149054906101000a900460ff166109a8576040517f08c379a0000000000000000000000000000000000000000000000000000000008152600401808060200182810382526025815260200180610a396025913960400191505060405180910390fd5b6004838360405180838380828437808301925050509250505090815260200160405180910390208190806001815401808255809150509060018203906000526020600020016000909192909190916101000a81548173ffffffffffffffffffffffffffffffffffffffff021916908373ffffffffffffffffffffffffffffffffffffffff1602179055505050505056fe436f6e74726163742069732063757272656e746c79206e6f74206f7065726174696f6e616c546869732061646472657373206973206e6f7420612072656769737465726564206169726c696e65a165627a7a723058200852a6c5e828b762e902d3830af7f667979559b24ea2694f69089ad48d7b84cd0029",
  "source": "pragma solidity ^0.5.0;\n\nimport \"../node_modules/openzeppelin-solidity/contracts/math/SafeMath.sol\";\n\ncontract FlightSuretyData {\n    using SafeMath for uint256;\n\n    //DATA VARIABLES\n    address private contractOwner;\n    bool private operational;  // Blocks all state changes throughout the contract if false\n    mapping(address => bool) private registeredAirlines;\n    mapping(address => bool) private memberAirlines; //Airlines that are registered and paid ante\n    uint private airlineCount;\n\n    mapping(string => address[]) InsureesFromFlight;\n\n    //EVENT DEFINITIONS\n    event AirlineAdded(address airline);\n\n    /**\n    * @dev Constructor\n    *      The deploying account becomes contractOwner\n    */\n    constructor() public\n    {\n        contractOwner = msg.sender;\n        operational = true;\n    }\n\n    //FUNCTION MODIFIERS\n    /**\n    * @dev Modifier that requires the \"operational\" boolean variable to be \"true\"\n    *      This is used on all state changing functions to pause the contract in\n    *      the event there is an issue that needs to be fixed\n    */\n    modifier requireIsOperational()\n    {\n        require(operational, \"Contract is currently not operational\");\n        _;\n    }\n\n    /**\n    * @dev Modifier that requires the \"ContractOwner\" account to be the function caller\n    */\n    modifier requireContractOwner()\n    {\n        require(msg.sender == contractOwner, \"Caller is not contract owner\");\n        _;\n    }\n\n    //UTILITY FUNCTIONS\n\n    /*\n    function authorizeCaller(address caller) public pure returns(uint, address) {\n        return (100, caller);\n    }\n    */\n\n    /**\n    * @dev Get operating status of contract\n    *\n    * @return A bool that is the current operating status\n    */\n    function isOperational() external view returns(bool)\n    {\n        return operational;\n    }\n\n    function isAirlineRegistered(address airline) external view returns(bool)\n    {\n        return registeredAirlines[airline];\n    }\n\n    function isAntePaid(address airline) external view returns(bool)\n    {\n        require(registeredAirlines[airline], \"This address is not a registered airline\");\n        return memberAirlines[airline];\n    }\n\n    function getAirlineCount() external view returns(uint) {\n        return airlineCount;\n    }\n\n\n    /**\n    * @dev Sets contract operations on/off\n    *\n    * When operational mode is disabled, all write transactions except for this one will fail\n    */\n    function setOperatingStatus(bool mode) external requireContractOwner\n    {\n        operational = mode;\n    }\n\n    //SMART CONTRACT FUNCTIONS\n   /**\n    * @dev Add an airline to the registration queue\n    *      Can only be called from FlightSuretyApp contract\n    *\n    */\n    function registerAirline(address newAirline)\n        external\n    {\n        registeredAirlines[newAirline] = true;\n        airlineCount++;\n    }\n\n    function payAnte(address newAirline) external {\n        memberAirlines[newAirline] = true;\n    }\n\n\n   /**\n    * @dev Buy insurance for a flight\n    *\n    */\n    function buy(string calldata flight, address sender) external payable requireIsOperational\n    {\n        InsureesFromFlight[flight].push(sender);\n    }\n\n    /**\n     *  @dev Credits payouts to insurees\n    */\n    function creditInsurees(string calldata flight) external view requireIsOperational returns(address[] memory)\n    {\n        return InsureesFromFlight[flight];\n    }\n\n\n    /**\n     *  @dev Transfers eligible payout funds to insuree\n     *\n    */\n    function pay() external view requireIsOperational\n    {\n        0;\n    }\n\n   /**\n    * @dev Initial funding for the insurance. Unless there are too many delayed flights\n    *      resulting in insurance payouts, the contract should be self-sustaining\n    *\n    */\n    function fund() public payable requireIsOperational\n    {\n    }\n\n    function getFlightKey\n    (\n        address airline,\n        string memory flight,\n        uint256 timestamp\n    )\n    internal pure returns(bytes32)\n    {\n        return keccak256(abi.encodePacked(airline, flight, timestamp));\n    }\n\n    /**\n    * @dev Fallback function for funding smart contract.\n    *\n    */\n    function() external payable\n    {\n        fund();\n    }\n\n\n}\n\n",
  "sourcePath": "/Users/cappwiedenhoefer/udacity_course/FlightSurety-projectv2/contracts/FlightSuretyData.sol",
  "compiler": {
    "name": "solc",
    "version": "0.5.8+commit.23d335f2.Emscripten.clang"
  },
  "schemaVersion": "3.0.10",
  "updatedAt": "2019-06-24T21:47:22.190Z",
  "devdoc": {
    "methods": {
      "buy(string,address)": {
        "details": "Buy insurance for a flight    "
      },
      "constructor": {
        "details": "Constructor     The deploying account becomes contractOwner"
      },
      "creditInsurees(string)": {
        "details": "Credits payouts to insurees"
      },
      "fund()": {
        "details": "Initial funding for the insurance. Unless there are too many delayed flights     resulting in insurance payouts, the contract should be self-sustaining    "
      },
      "isOperational()": {
        "details": "Get operating status of contract",
        "return": "A bool that is the current operating status"
      },
      "pay()": {
        "details": "Transfers eligible payout funds to insuree    "
      },
      "registerAirline(address)": {
        "details": "Add an airline to the registration queue     Can only be called from FlightSuretyApp contract    "
      },
      "setOperatingStatus(bool)": {
        "details": "Sets contract operations on/off    * When operational mode is disabled, all write transactions except for this one will fail"
      }
    }
  },
  "userdoc": {
    "methods": {}
  }
}