{
  "contractName": "FlightSuretyApp",
  "abi": [
    {
      "constant": true,
      "inputs": [],
      "name": "REGISTRATION_FEE",
      "outputs": [
        {
          "name": "",
          "type": "uint256"
        }
      ],
      "payable": false,
      "stateMutability": "view",
      "type": "function"
    },
    {
      "inputs": [
        {
          "name": "dataContract",
          "type": "address"
        }
      ],
      "payable": false,
      "stateMutability": "nonpayable",
      "type": "constructor"
    },
    {
      "payable": true,
      "stateMutability": "payable",
      "type": "fallback"
    },
    {
      "anonymous": false,
      "inputs": [
        {
          "indexed": false,
          "name": "index",
          "type": "uint8"
        },
        {
          "indexed": false,
          "name": "airline",
          "type": "address"
        },
        {
          "indexed": false,
          "name": "flight",
          "type": "uint256"
        },
        {
          "indexed": false,
          "name": "timestamp",
          "type": "uint256"
        }
      ],
      "name": "OracleRequest",
      "type": "event"
    },
    {
      "anonymous": false,
      "inputs": [
        {
          "indexed": false,
          "name": "airline",
          "type": "address"
        },
        {
          "indexed": false,
          "name": "flight",
          "type": "uint256"
        },
        {
          "indexed": false,
          "name": "timestamp",
          "type": "uint256"
        },
        {
          "indexed": false,
          "name": "status",
          "type": "uint8"
        }
      ],
      "name": "OracleReport",
      "type": "event"
    },
    {
      "anonymous": false,
      "inputs": [
        {
          "indexed": false,
          "name": "airline",
          "type": "address"
        },
        {
          "indexed": false,
          "name": "flight",
          "type": "uint256"
        },
        {
          "indexed": false,
          "name": "timestamp",
          "type": "uint256"
        },
        {
          "indexed": false,
          "name": "status",
          "type": "uint8"
        }
      ],
      "name": "FlightStatusInfo",
      "type": "event"
    },
    {
      "constant": false,
      "inputs": [
        {
          "name": "airline",
          "type": "address"
        },
        {
          "name": "flightNum",
          "type": "uint256"
        },
        {
          "name": "timestamp",
          "type": "uint256"
        }
      ],
      "name": "fetchFlightStatus",
      "outputs": [],
      "payable": false,
      "stateMutability": "nonpayable",
      "type": "function"
    },
    {
      "constant": false,
      "inputs": [
        {
          "name": "index",
          "type": "uint8"
        },
        {
          "name": "airline",
          "type": "address"
        },
        {
          "name": "flight",
          "type": "uint256"
        },
        {
          "name": "timestamp",
          "type": "uint256"
        },
        {
          "name": "statusCode",
          "type": "uint8"
        }
      ],
      "name": "submitOracleResponse",
      "outputs": [],
      "payable": false,
      "stateMutability": "nonpayable",
      "type": "function"
    }
  ],
  "bytecode": "0x60806040526000600160146101000a81548160ff021916908360ff16021790555034801561002c57600080fd5b506040516020806109e88339810180604052602081101561004c57600080fd5b8101908080519060200190929190505050336000806101000a81548173ffffffffffffffffffffffffffffffffffffffff021916908373ffffffffffffffffffffffffffffffffffffffff16021790555080600160006101000a81548173ffffffffffffffffffffffffffffffffffffffff021916908373ffffffffffffffffffffffffffffffffffffffff160217905550506108fa806100ee6000396000f3fe6080604052600436106100345760003560e01c806364b4f75114610036578063b48b909a14610061578063c9254fb4146100e0575b005b34801561004257600080fd5b5061004b610145565b6040518082815260200191505060405180910390f35b34801561006d57600080fd5b506100de600480360360a081101561008457600080fd5b81019080803560ff169060200190929190803573ffffffffffffffffffffffffffffffffffffffff1690602001909291908035906020019092919080359060200190929190803560ff169060200190929190505050610151565b005b3480156100ec57600080fd5b506101436004803603606081101561010357600080fd5b81019080803573ffffffffffffffffffffffffffffffffffffffff16906020019092919080359060200190929190803590602001909291905050506105cb565b005b670de0b6b3a764000081565b8460ff16600260003373ffffffffffffffffffffffffffffffffffffffff1673ffffffffffffffffffffffffffffffffffffffff1681526020019081526020016000206001016000600381106101a357fe5b602091828204019190069054906101000a900460ff1660ff16148061023057508460ff16600260003373ffffffffffffffffffffffffffffffffffffffff1673ffffffffffffffffffffffffffffffffffffffff16815260200190815260200160002060010160016003811061021557fe5b602091828204019190069054906101000a900460ff1660ff16145b806102a357508460ff16600260003373ffffffffffffffffffffffffffffffffffffffff1673ffffffffffffffffffffffffffffffffffffffff16815260200190815260200160002060010160026003811061028857fe5b602091828204019190069054906101000a900460ff1660ff16145b6102f8576040517f08c379a00000000000000000000000000000000000000000000000000000000081526004018080602001828103825260238152602001806108ac6023913960400191505060405180910390fd5b600085858585604051602001808560ff1660ff1660f81b81526001018473ffffffffffffffffffffffffffffffffffffffff1673ffffffffffffffffffffffffffffffffffffffff1660601b81526014018381526020018281526020019450505050506040516020818303038152906040528051906020012090506003600082815260200190815260200160002060000160149054906101000a900460ff166103ec576040517f08c379a000000000000000000000000000000000000000000000000000000000815260040180806020018281038252602f81526020018061087d602f913960400191505060405180910390fd5b6003600082815260200190815260200160002060010160008360ff1660ff1681526020019081526020016000203390806001815401808255809150509060018203906000526020600020016000909192909190916101000a81548173ffffffffffffffffffffffffffffffffffffffff021916908373ffffffffffffffffffffffffffffffffffffffff160217905550507fe6972e4cdbe09e8bbcc4dbed4c557cd7794e78c7f3b476b45a26b345936b625285858585604051808573ffffffffffffffffffffffffffffffffffffffff1673ffffffffffffffffffffffffffffffffffffffff1681526020018481526020018381526020018260ff1660ff16815260200194505050505060405180910390a1600380600083815260200190815260200160002060010160008460ff1660ff16815260200190815260200160002080549050106105c3577f78435921272360162ecaa3f412869056dd66fc58fceb7a4aa58b90f8a3c9f79a85858585604051808573ffffffffffffffffffffffffffffffffffffffff1673ffffffffffffffffffffffffffffffffffffffff1681526020018481526020018381526020018260ff1660ff16815260200194505050505060405180910390a16105c285858585610786565b5b505050505050565b60006105d63361078c565b9050600081858585604051602001808560ff1660ff1660f81b81526001018473ffffffffffffffffffffffffffffffffffffffff1673ffffffffffffffffffffffffffffffffffffffff1660601b815260140183815260200182815260200194505050505060405160208183030381529060405280519060200120905060405180604001604052803373ffffffffffffffffffffffffffffffffffffffff168152602001600115158152506003600083815260200190815260200160002060008201518160000160006101000a81548173ffffffffffffffffffffffffffffffffffffffff021916908373ffffffffffffffffffffffffffffffffffffffff16021790555060208201518160000160146101000a81548160ff0219169083151502179055509050507f0c40e6292eab2e7113ac64ee9098dea03032b7d9182ce8ea52b59739364a237082868686604051808560ff1660ff1681526020018473ffffffffffffffffffffffffffffffffffffffff1673ffffffffffffffffffffffffffffffffffffffff16815260200183815260200182815260200194505050505060405180910390a15050505050565b50505050565b600080600a905060008160ff166001601481819054906101000a900460ff168092919060010191906101000a81548160ff021916908360ff16021790555060ff1643034085604051602001808381526020018273ffffffffffffffffffffffffffffffffffffffff1673ffffffffffffffffffffffffffffffffffffffff1660601b8152601401925050506040516020818303038152906040528051906020012060001c8161083757fe5b06905060fa600160149054906101000a900460ff1660ff161115610872576000600160146101000a81548160ff021916908360ff1602179055505b809250505091905056fe466c69676874206f722074696d657374616d7020646f206e6f74206d61746368206f7261636c652072657175657374496e64657820646f6573206e6f74206d61746368206f7261636c652072657175657374a165627a7a723058207a040cd927d7f1784cea63fff1fc0ab1b40899bdaf845773951795f5bb7ae0060029",
  "source": "pragma solidity ^0.5.0;\n\nimport \"../node_modules/openzeppelin-solidity/contracts/math/SafeMath.sol\";\n\n//FlightSurety Smart Contract\n\ncontract FlightSuretyApp {\n    using SafeMath for uint256;\n\n    address payable private contractOwner;          // Account used to deploy contract\n    FlightSuretyData flightSuretyData;      // Instance of the data contract\n    uint8 private nonce = 0;\n    uint256 public constant REGISTRATION_FEE = 1 ether;\n    uint256 private constant MIN_RESPONSES = 3;\n    struct Oracle {\n        bool isRegistered;\n        uint8[3] indexes;\n    }\n    mapping(address => Oracle) private oracles;\n\n    // Model for responses from oracles\n    struct ResponseInfo {\n        address requester;\n        bool isOpen;\n        mapping(uint8 => address[]) responses;\n    }\n    mapping(bytes32 => ResponseInfo) private oracleResponses;\n\n    //Events\n    event OracleRequest(uint8 index, address airline, uint flight, uint256 timestamp);\n    event OracleReport(address airline, uint flight, uint256 timestamp, uint8 status);\n    event FlightStatusInfo(address airline, uint flight, uint256 timestamp, uint8 status);\n\n    //MODIFIERS\n\n    //CONSTRUCTOR\n    constructor(address dataContract) public\n    {\n        contractOwner = msg.sender;\n        flightSuretyData = FlightSuretyData(dataContract);\n    }\n\n    function fetchFlightStatus\n    (\n        address airline,\n        uint flightNum,\n        uint timestamp\n    )\n        external\n    {\n        uint8 index = getRandomIndex(msg.sender);\n        // Generate a unique key for storing the request\n        bytes32 key = keccak256(abi.encodePacked(index, airline, flightNum, timestamp));\n        oracleResponses[key] = ResponseInfo({\n            requester: msg.sender,\n            isOpen: true\n        });\n        emit OracleRequest(index, airline, flightNum, timestamp);\n    }\n\n    function submitOracleResponse\n    (\n        uint8 index,\n        address airline,\n        uint flight,\n        uint256 timestamp,\n        uint8 statusCode\n    )\n    external\n    {\n        require(\n            (oracles[msg.sender].indexes[0] == index) ||\n            (oracles[msg.sender].indexes[1] == index) ||\n            (oracles[msg.sender].indexes[2] == index),\n            \"Index does not match oracle request\"\n        );\n        bytes32 key = keccak256(abi.encodePacked(index, airline, flight, timestamp));\n        require(oracleResponses[key].isOpen, \"Flight or timestamp do not match oracle request\");\n        oracleResponses[key].responses[statusCode].push(msg.sender);\n        // Information isn't considered verified until at least MIN_RESPONSES\n        // oracles respond with the *** same *** information\n        emit OracleReport(airline, flight, timestamp, statusCode);\n        if (oracleResponses[key].responses[statusCode].length >= MIN_RESPONSES) {\n            emit FlightStatusInfo(airline, flight, timestamp, statusCode);\n            // Handle flight status as appropriate\n            processFlightStatus(airline, flight, timestamp, statusCode);\n        }\n    }\n\n    function processFlightStatus\n    (\n        address airline,\n        uint flight,\n        uint256 timestamp,\n        uint8 statusCode\n    )\n    internal pure\n    {\n        1+1;\n    }\n\n    function getRandomIndex\n    (\n        address account\n    )\n    internal returns (uint8)\n    {\n        uint8 maxValue = 10;\n\n        // Pseudo random number...the incrementing nonce adds variation\n        uint8 random = uint8(uint256(keccak256(abi.encodePacked(blockhash(block.number - nonce++), account))) % maxValue);\n\n        if (nonce > 250) {\n            nonce = 0;  // Can only fetch blockhashes for last 256 blocks so we adapt\n        }\n\n        return random;\n    }\n\n    function() external payable {}\n\n}\n\n//Contract Data Interface\ncontract FlightSuretyData {\n    \n}",
  "sourcePath": "/Users/cappwiedenhoefer/udacity_course/FlightSurety-oracles-server/contracts/FlightSuretyApp.sol",
  "compiler": {
    "name": "solc",
    "version": "0.5.8+commit.23d335f2.Emscripten.clang"
  },
  "schemaVersion": "3.0.10",
  "updatedAt": "2019-06-27T19:08:33.527Z",
  "devdoc": {
    "methods": {}
  },
  "userdoc": {
    "methods": {}
  }
}