{
  "contractName": "FlightSuretyApp",
  "abi": [
    {
      "constant": false,
      "inputs": [
        {
          "name": "flightNum",
          "type": "uint256"
        }
      ],
      "name": "buyInsurance",
      "outputs": [],
      "payable": true,
      "stateMutability": "payable",
      "type": "function"
    },
    {
      "constant": false,
      "inputs": [],
      "name": "withdrawCredit",
      "outputs": [],
      "payable": false,
      "stateMutability": "nonpayable",
      "type": "function"
    },
    {
      "constant": false,
      "inputs": [
        {
          "name": "flightNum",
          "type": "uint256"
        }
      ],
      "name": "creditInsurees",
      "outputs": [],
      "payable": false,
      "stateMutability": "nonpayable",
      "type": "function"
    },
    {
      "inputs": [
        {
          "name": "dataContract",
          "type": "address"
        }
      ],
      "payable": false,
      "stateMutability": "nonpayable",
      "type": "constructor"
    },
    {
      "payable": true,
      "stateMutability": "payable",
      "type": "fallback"
    },
    {
      "constant": true,
      "inputs": [],
      "name": "isOperational",
      "outputs": [
        {
          "name": "",
          "type": "bool"
        }
      ],
      "payable": false,
      "stateMutability": "pure",
      "type": "function"
    }
  ],
  "bytecode": "0x608060405234801561001057600080fd5b506040516020806106a38339810180604052602081101561003057600080fd5b8101908080519060200190929190505050336000806101000a81548173ffffffffffffffffffffffffffffffffffffffff021916908373ffffffffffffffffffffffffffffffffffffffff16021790555080600160006101000a81548173ffffffffffffffffffffffffffffffffffffffff021916908373ffffffffffffffffffffffffffffffffffffffff160217905550506105d1806100d26000396000f3fe60806040526004361061003f5760003560e01c8063a86a658c14610041578063c36f38741461006f578063c82b1abf14610086578063cd905dff146100c1575b005b61006d6004803603602081101561005757600080fd5b81019080803590602001909291905050506100f0565b005b34801561007b57600080fd5b50610084610250565b005b34801561009257600080fd5b506100bf600480360360208110156100a957600080fd5b810190808035906020019092919050505061035f565b005b3480156100cd57600080fd5b506100d6610526565b604051808215151515815260200191505060405180910390f35b670de0b6b3a7640000341115610151576040517f08c379a00000000000000000000000000000000000000000000000000000000081526004018080602001828103825260238152602001806105836023913960400191505060405180910390fd5b61015961052f565b73ffffffffffffffffffffffffffffffffffffffff166108fc349081150290604051600060405180830381858888f1935050505015801561019e573d6000803e3d6000fd5b506101a7610558565b73ffffffffffffffffffffffffffffffffffffffff1663df30b0228233346040518463ffffffff1660e01b8152600401808481526020018373ffffffffffffffffffffffffffffffffffffffff1673ffffffffffffffffffffffffffffffffffffffff1681526020018281526020019350505050600060405180830381600087803b15801561023557600080fd5b505af1158015610249573d6000803e3d6000fd5b5050505050565b600061025a610558565b73ffffffffffffffffffffffffffffffffffffffff16636c8cc9d9336040518263ffffffff1660e01b8152600401808273ffffffffffffffffffffffffffffffffffffffff1673ffffffffffffffffffffffffffffffffffffffff168152602001915050602060405180830381600087803b1580156102d857600080fd5b505af11580156102ec573d6000803e3d6000fd5b505050506040513d602081101561030257600080fd5b810190808051906020019092919050505090503373ffffffffffffffffffffffffffffffffffffffff166108fc829081150290604051600060405180830381858888f1935050505015801561035b573d6000803e3d6000fd5b5050565b6060610369610558565b73ffffffffffffffffffffffffffffffffffffffff1663e95e70b4836040518263ffffffff1660e01b81526004018082815260200191505060006040518083038186803b1580156103b957600080fd5b505afa1580156103cd573d6000803e3d6000fd5b505050506040513d6000823e3d601f19601f8201168201806040525060208110156103f757600080fd5b81019080805164010000000081111561040f57600080fd5b8281019050602081018481111561042557600080fd5b815185602082028301116401000000008211171561044257600080fd5b5050929190505050905060008090505b815181101561052157610463610558565b73ffffffffffffffffffffffffffffffffffffffff1663b632702a8484848151811061048b57fe5b60200260200101516040518363ffffffff1660e01b8152600401808381526020018273ffffffffffffffffffffffffffffffffffffffff1673ffffffffffffffffffffffffffffffffffffffff16815260200192505050600060405180830381600087803b1580156104fc57600080fd5b505af1158015610510573d6000803e3d6000fd5b505050508080600101915050610452565b505050565b60006001905090565b60008060009054906101000a900473ffffffffffffffffffffffffffffffffffffffff16905090565b6000600160009054906101000a900473ffffffffffffffffffffffffffffffffffffffff1690509056fe596f752063616e6e6f7420696e73757265206d6f7265207468616e2031206574686572a165627a7a723058207517ef296a95fbe52d202a538796b3f45cc375f35130ec79c5c0dbcf1782a4aa0029",
  "source": "pragma solidity ^0.5.0;\n\nimport \"../node_modules/openzeppelin-solidity/contracts/math/SafeMath.sol\";\nimport \"./PassengerManager.sol\";\n\n//FlightSurety Smart Contract\n\ncontract FlightSuretyApp is PassengerManager {\n    using SafeMath for uint256;\n\n    address payable private contractOwner;          // Account used to deploy contract\n    FlightSuretyData flightSuretyData;      // Instance of the data contract\n\n    //MODIFIERS\n\n    //CONSTRUCTOR\n\n    /**\n    * @dev Contract constructor\n    *\n    */\n    constructor(address dataContract) public\n    {\n        contractOwner = msg.sender;\n        flightSuretyData = FlightSuretyData(dataContract);\n    }\n\n    function isOperational() external pure returns(bool)\n    {\n        return true;\n    }\n\n    function getContractOwner() internal view returns(address payable)\n    {\n        return contractOwner;\n    }\n\n    function getFlightSuretyData() internal view returns(FlightSuretyData)\n    {\n        return flightSuretyData;\n    }\n\n}",
  "sourcePath": "/Users/cappwiedenhoefer/udacity_course/FlightSurety-passengers/contracts/FlightSuretyApp.sol",
  "compiler": {
    "name": "solc",
    "version": "0.5.8+commit.23d335f2.Emscripten.clang"
  },
  "schemaVersion": "3.0.10",
  "updatedAt": "2019-07-03T23:19:14.172Z",
  "devdoc": {
    "methods": {
      "constructor": {
        "details": "Contract constructor    "
      }
    }
  },
  "userdoc": {
    "methods": {}
  }
}